{
  "_format": "hh-sol-artifact-1",
  "contractName": "WavePortal",
  "sourceName": "contracts/WavePortal.sol",
  "abi": [
    {
      "inputs": [],
      "stateMutability": "payable",
      "type": "constructor"
    },
    {
      "anonymous": false,
      "inputs": [
        {
          "indexed": true,
          "internalType": "address",
          "name": "from",
          "type": "address"
        },
        {
          "indexed": false,
          "internalType": "uint256",
          "name": "timestamp",
          "type": "uint256"
        },
        {
          "indexed": false,
          "internalType": "string",
          "name": "message",
          "type": "string"
        }
      ],
      "name": "NewWave",
      "type": "event"
    },
    {
      "inputs": [],
      "name": "getAllWaves",
      "outputs": [
        {
          "components": [
            {
              "internalType": "address",
              "name": "waver",
              "type": "address"
            },
            {
              "internalType": "string",
              "name": "message",
              "type": "string"
            },
            {
              "internalType": "uint256",
              "name": "timestamp",
              "type": "uint256"
            }
          ],
          "internalType": "struct WavePortal.Wave[]",
          "name": "",
          "type": "tuple[]"
        }
      ],
      "stateMutability": "view",
      "type": "function"
    },
    {
      "inputs": [],
      "name": "getTotalWaves",
      "outputs": [
        {
          "internalType": "uint256",
          "name": "",
          "type": "uint256"
        }
      ],
      "stateMutability": "view",
      "type": "function"
    },
    {
      "inputs": [
        {
          "internalType": "address",
          "name": "",
          "type": "address"
        }
      ],
      "name": "lastWavedAt",
      "outputs": [
        {
          "internalType": "uint256",
          "name": "",
          "type": "uint256"
        }
      ],
      "stateMutability": "view",
      "type": "function"
    },
    {
      "inputs": [
        {
          "internalType": "string",
          "name": "_message",
          "type": "string"
        }
      ],
      "name": "wave",
      "outputs": [],
      "stateMutability": "nonpayable",
      "type": "function"
    }
  ],
  "bytecode": "0x60806040526200004f6040518060400160405280601c81526020017f57617665506f7274616c202d20536d61727420436f6e747261637421000000008152506200007760201b620006c71760201c565b606444426200005f91906200017c565b6200006b9190620001e6565b600181905550620002dc565b62000117816040516024016200008e9190620002b8565b6040516020818303038152906040527f41304fac000000000000000000000000000000000000000000000000000000007bffffffffffffffffffffffffffffffffffffffffffffffffffffffff19166020820180517bffffffffffffffffffffffffffffffffffffffffffffffffffffffff83818316178352505050506200011a60201b60201c565b50565b60008151905060006a636f6e736f6c652e6c6f679050602083016000808483855afa5050505050565b6000819050919050565b7f4e487b7100000000000000000000000000000000000000000000000000000000600052601160045260246000fd5b6000620001898262000143565b9150620001968362000143565b9250828201905080821115620001b157620001b06200014d565b5b92915050565b7f4e487b7100000000000000000000000000000000000000000000000000000000600052601260045260246000fd5b6000620001f38262000143565b9150620002008362000143565b925082620002135762000212620001b7565b5b828206905092915050565b600081519050919050565b600082825260208201905092915050565b60005b838110156200025a5780820151818401526020810190506200023d565b60008484015250505050565b6000601f19601f8301169050919050565b600062000284826200021e565b62000290818562000229565b9350620002a28185602086016200023a565b620002ad8162000266565b840191505092915050565b60006020820190508181036000830152620002d4818462000277565b905092915050565b61156d80620002ec6000396000f3fe608060405234801561001057600080fd5b506004361061004c5760003560e01c8063449d46c0146100515780639a2cdc081461006d578063a42a46631461008b578063bd43a908146100bb575b600080fd5b61006b60048036038101906100669190610b59565b6100d9565b005b610075610513565b6040516100829190610bbb565b60405180910390f35b6100a560048036038101906100a09190610c34565b61055e565b6040516100b29190610bbb565b60405180910390f35b6100c3610576565b6040516100d09190610e10565b60405180910390f35b42610384600360003373ffffffffffffffffffffffffffffffffffffffff1673ffffffffffffffffffffffffffffffffffffffff168152602001908152602001600020546101279190610e61565b10610167576040517f08c379a000000000000000000000000000000000000000000000000000000000815260040161015e90610ef2565b60405180910390fd5b42600360003373ffffffffffffffffffffffffffffffffffffffff1673ffffffffffffffffffffffffffffffffffffffff1681526020019081526020016000208190555060016000808282546101bd9190610e61565b925050819055506102046040518060400160405280601681526020017f257320776176656420772f206d657373616765202573000000000000000000008152503383610760565b600260405180606001604052803373ffffffffffffffffffffffffffffffffffffffff16815260200183815260200142815250908060018154018082558091505060019003906000526020600020906003020160009091909190915060008201518160000160006101000a81548173ffffffffffffffffffffffffffffffffffffffff021916908373ffffffffffffffffffffffffffffffffffffffff16021790555060208201518160010190816102bc919061111e565b50604082015181600201555050606460015442446102da9190610e61565b6102e49190610e61565b6102ee919061121f565b6001819055506103356040518060400160405280601681526020017f52616e646f6d20232067656e6572617465643a202564000000000000000000008152506001546107ff565b3373ffffffffffffffffffffffffffffffffffffffff167f5f7e16dc676677766a70e9c5628aa6c54ddb8b6e5188e2ae1e1f17f1ffbea716428360405161037d929190611289565b60405180910390a26032600154116104d0576000655af3107a40009050478111156103dd576040517f08c379a00000000000000000000000000000000000000000000000000000000081526004016103d49061132b565b60405180910390fd5b60003373ffffffffffffffffffffffffffffffffffffffff16826040516104039061137c565b60006040518083038185875af1925050503d8060008114610440576040519150601f19603f3d011682016040523d82523d6000602084013e610445565b606091505b5050905080610489576040517f08c379a000000000000000000000000000000000000000000000000000000000815260040161048090611403565b60405180910390fd5b6104c96040518060400160405280601581526020017f257320776f6e212025642073656e642065746865720000000000000000000000815250338461089b565b5050610510565b61050f6040518060400160405280600f81526020017f257320646964206e6f742077696e2e00000000000000000000000000000000008152503361093a565b5b50565b60006105566040518060400160405280601781526020017f5765206861766520256420746f74616c207761766573210000000000000000008152506000546107ff565b600054905090565b60036020528060005260406000206000915090505481565b60606002805480602002602001604051908101604052809291908181526020016000905b828210156106be57838290600052602060002090600302016040518060600160405290816000820160009054906101000a900473ffffffffffffffffffffffffffffffffffffffff1673ffffffffffffffffffffffffffffffffffffffff1673ffffffffffffffffffffffffffffffffffffffff16815260200160018201805461062390610f41565b80601f016020809104026020016040519081016040528092919081815260200182805461064f90610f41565b801561069c5780601f106106715761010080835404028352916020019161069c565b820191906000526020600020905b81548152906001019060200180831161067f57829003601f168201915b505050505081526020016002820154815250508152602001906001019061059a565b50505050905090565b61075d816040516024016106db9190611423565b6040516020818303038152906040527f41304fac000000000000000000000000000000000000000000000000000000007bffffffffffffffffffffffffffffffffffffffffffffffffffffffff19166020820180517bffffffffffffffffffffffffffffffffffffffffffffffffffffffff83818316178352505050506109d6565b50565b6107fa83838360405160240161077893929190611454565b6040516020818303038152906040527fe0e9ad4f000000000000000000000000000000000000000000000000000000007bffffffffffffffffffffffffffffffffffffffffffffffffffffffff19166020820180517bffffffffffffffffffffffffffffffffffffffffffffffffffffffff83818316178352505050506109d6565b505050565b6108978282604051602401610815929190611499565b6040516020818303038152906040527fb60e72cc000000000000000000000000000000000000000000000000000000007bffffffffffffffffffffffffffffffffffffffffffffffffffffffff19166020820180517bffffffffffffffffffffffffffffffffffffffffffffffffffffffff83818316178352505050506109d6565b5050565b6109358383836040516024016108b3939291906114c9565b6040516020818303038152906040527f0d26b925000000000000000000000000000000000000000000000000000000007bffffffffffffffffffffffffffffffffffffffffffffffffffffffff19166020820180517bffffffffffffffffffffffffffffffffffffffffffffffffffffffff83818316178352505050506109d6565b505050565b6109d28282604051602401610950929190611507565b6040516020818303038152906040527f319af333000000000000000000000000000000000000000000000000000000007bffffffffffffffffffffffffffffffffffffffffffffffffffffffff19166020820180517bffffffffffffffffffffffffffffffffffffffffffffffffffffffff83818316178352505050506109d6565b5050565b60008151905060006a636f6e736f6c652e6c6f679050602083016000808483855afa5050505050565b6000604051905090565b600080fd5b600080fd5b600080fd5b600080fd5b6000601f19601f8301169050919050565b7f4e487b7100000000000000000000000000000000000000000000000000000000600052604160045260246000fd5b610a6682610a1d565b810181811067ffffffffffffffff82111715610a8557610a84610a2e565b5b80604052505050565b6000610a986109ff565b9050610aa48282610a5d565b919050565b600067ffffffffffffffff821115610ac457610ac3610a2e565b5b610acd82610a1d565b9050602081019050919050565b82818337600083830152505050565b6000610afc610af784610aa9565b610a8e565b905082815260208101848484011115610b1857610b17610a18565b5b610b23848285610ada565b509392505050565b600082601f830112610b4057610b3f610a13565b5b8135610b50848260208601610ae9565b91505092915050565b600060208284031215610b6f57610b6e610a09565b5b600082013567ffffffffffffffff811115610b8d57610b8c610a0e565b5b610b9984828501610b2b565b91505092915050565b6000819050919050565b610bb581610ba2565b82525050565b6000602082019050610bd06000830184610bac565b92915050565b600073ffffffffffffffffffffffffffffffffffffffff82169050919050565b6000610c0182610bd6565b9050919050565b610c1181610bf6565b8114610c1c57600080fd5b50565b600081359050610c2e81610c08565b92915050565b600060208284031215610c4a57610c49610a09565b5b6000610c5884828501610c1f565b91505092915050565b600081519050919050565b600082825260208201905092915050565b6000819050602082019050919050565b610c9681610bf6565b82525050565b600081519050919050565b600082825260208201905092915050565b60005b83811015610cd6578082015181840152602081019050610cbb565b60008484015250505050565b6000610ced82610c9c565b610cf78185610ca7565b9350610d07818560208601610cb8565b610d1081610a1d565b840191505092915050565b610d2481610ba2565b82525050565b6000606083016000830151610d426000860182610c8d565b5060208301518482036020860152610d5a8282610ce2565b9150506040830151610d6f6040860182610d1b565b508091505092915050565b6000610d868383610d2a565b905092915050565b6000602082019050919050565b6000610da682610c61565b610db08185610c6c565b935083602082028501610dc285610c7d565b8060005b85811015610dfe5784840389528151610ddf8582610d7a565b9450610dea83610d8e565b925060208a01995050600181019050610dc6565b50829750879550505050505092915050565b60006020820190508181036000830152610e2a8184610d9b565b905092915050565b7f4e487b7100000000000000000000000000000000000000000000000000000000600052601160045260246000fd5b6000610e6c82610ba2565b9150610e7783610ba2565b9250828201905080821115610e8f57610e8e610e32565b5b92915050565b600082825260208201905092915050565b7f576169742031356d000000000000000000000000000000000000000000000000600082015250565b6000610edc600883610e95565b9150610ee782610ea6565b602082019050919050565b60006020820190508181036000830152610f0b81610ecf565b9050919050565b7f4e487b7100000000000000000000000000000000000000000000000000000000600052602260045260246000fd5b60006002820490506001821680610f5957607f821691505b602082108103610f6c57610f6b610f12565b5b50919050565b60008190508160005260206000209050919050565b60006020601f8301049050919050565b600082821b905092915050565b600060088302610fd47fffffffffffffffffffffffffffffffffffffffffffffffffffffffffffffffff82610f97565b610fde8683610f97565b95508019841693508086168417925050509392505050565b6000819050919050565b600061101b61101661101184610ba2565b610ff6565b610ba2565b9050919050565b6000819050919050565b61103583611000565b61104961104182611022565b848454610fa4565b825550505050565b600090565b61105e611051565b61106981848461102c565b505050565b5b8181101561108d57611082600082611056565b60018101905061106f565b5050565b601f8211156110d2576110a381610f72565b6110ac84610f87565b810160208510156110bb578190505b6110cf6110c785610f87565b83018261106e565b50505b505050565b600082821c905092915050565b60006110f5600019846008026110d7565b1980831691505092915050565b600061110e83836110e4565b9150826002028217905092915050565b61112782610c9c565b67ffffffffffffffff8111156111405761113f610a2e565b5b61114a8254610f41565b611155828285611091565b600060209050601f8311600181146111885760008415611176578287015190505b6111808582611102565b8655506111e8565b601f19841661119686610f72565b60005b828110156111be57848901518255600182019150602085019450602081019050611199565b868310156111db57848901516111d7601f8916826110e4565b8355505b6001600288020188555050505b505050505050565b7f4e487b7100000000000000000000000000000000000000000000000000000000600052601260045260246000fd5b600061122a82610ba2565b915061123583610ba2565b925082611245576112446111f0565b5b828206905092915050565b600061125b82610c9c565b6112658185610e95565b9350611275818560208601610cb8565b61127e81610a1d565b840191505092915050565b600060408201905061129e6000830185610bac565b81810360208301526112b08184611250565b90509392505050565b7f547279696e6720746f207769746864726177206d6f7265206d6f6e657920746860008201527f616e2074686520636f6e7472616374206861732e000000000000000000000000602082015250565b6000611315603483610e95565b9150611320826112b9565b604082019050919050565b6000602082019050818103600083015261134481611308565b9050919050565b600081905092915050565b50565b600061136660008361134b565b915061137182611356565b600082019050919050565b600061138782611359565b9150819050919050565b7f4661696c656420746f207769746864726177206d6f6e65792066726f6d20636f60008201527f6e74726163742e00000000000000000000000000000000000000000000000000602082015250565b60006113ed602783610e95565b91506113f882611391565b604082019050919050565b6000602082019050818103600083015261141c816113e0565b9050919050565b6000602082019050818103600083015261143d8184611250565b905092915050565b61144e81610bf6565b82525050565b6000606082019050818103600083015261146e8186611250565b905061147d6020830185611445565b818103604083015261148f8184611250565b9050949350505050565b600060408201905081810360008301526114b38185611250565b90506114c26020830184610bac565b9392505050565b600060608201905081810360008301526114e38186611250565b90506114f26020830185611445565b6114ff6040830184610bac565b949350505050565b600060408201905081810360008301526115218185611250565b90506115306020830184611445565b939250505056fea26469706673582212208dd0a6071dd41280f7c9c4ce5a65598ca510730c8e7c8b6a1c1b2f33685f496e64736f6c63430008110033",
  "linkReferences": {},
  "deployedLinkReferences": {}
}